:020000040800F2
:10000000000002201D1600083513000837130008F1
:10001000391300083B1300083D13000800000000DE
:100020000000000000000000000000003F13000876
:1000300041130008000000004313000845130008A6
:100040006D1600086D1600086D1600086D16000884
:100050006D1600086D1600086D1600086D16000874
:100060006D1600086D1600086D1600086D16000864
:100070006D1600086D1600086D1600086D16000854
:100080006D1600086D1600086D1600086D16000844
:100090006D1600086D1600086D1600086D16000834
:1000A0006D1600086D1600086D1600086D16000824
:1000B0006D1600086D1600086D1600086D16000814
:1000C0006D1600086D1600086D1600086D16000804
:1000D0006D1600086D1600086D1600086D160008F4
:1000E0006D1600086D1600086D1600086D160008E4
:1000F0006D1600086D1600086D1600086D160008D4
:100100006D1600086D1600086D1600086D160008C3
:100110006D1600086D1600086D16000849130008DA
:100120006D1600086D1600086D1600086D160008A3
:100130006D1600086D1600086D1600086D16000893
:100140006D1600086D1600086D1600086D16000883
:100150006D1600086D1600086D1600086D16000873
:100160006D1600086D1600086D1600086D16000863
:100170006D1600086D1600086D16000800000000DE
:080180006D1600086D16000861
:1001900010B5054C237833B9044B13B10448AFF3C1
:1001A00000800123237010BDD80E00200000000045
:1001B0001858030808B5034B1BB103490348AFF3B4
:1001C000008008BD00000000DC0E00201858030865
:1001D00081F0004102E000BF83F0004330B54FEAF8
:1001E00041044FEA430594EA050F08BF90EA020F65
:1001F0001FBF54EA000C55EA020C7FEA645C7FEAF8
:10020000655C00F0E2804FEA5454D4EB5555B8BF1A
:100210006D420CDD2C4480EA020281EA030382EA8B
:10022000000083EA010180EA020281EA0303362D1D
:1002300088BF30BD11F0004F4FEA01314FF4801CF0
:100240004CEA113102D0404261EB410113F0004F02
:100250004FEA03334CEA133302D0524263EB4303B9
:1002600094EA050F00F0A780A4F10104D5F1200E57
:100270000DDB02FA0EFC22FA05F2801841F10001B2
:1002800003FA0EF2801843FA05F359410EE0A5F186
:1002900020050EF1200E012A03FA0EFC28BF4CF0B7
:1002A000020C43FA05F3C01851EBE37101F000456D
:1002B00007D54FF0000EDCF1000C7EEB00006EEB7A
:1002C0000101B1F5801F1BD3B1F5001F0CD3490804
:1002D0005FEA30004FEA3C0C04F101044FEA44525B
:1002E00012F5800F80F09A80BCF1004F08BF5FEAE2
:1002F000500C50F1000041EB045141EA050130BDC2
:100300005FEA4C0C404141EB0101013C28BFB1F5D3
:10031000801FE9D291F0000F04BF01460020B1FA1E
:1003200081F308BF2033A3F10B03B3F120020CDAF1
:100330000C3208DD02F1140CC2F10C0201FA0CF0CF
:1003400021FA02F10CE002F11402D8BFC2F1200C34
:1003500001FA02F120FA0CFCDCBF41EA0C019040EA
:10036000E41AA2BF01EB0451294330BD6FEA040433
:100370001F3C1CDA0C340EDC04F11404C4F120021E
:1003800020FA04F001FA02F340EA030021FA04F330
:1003900045EA030130BDC4F10C04C4F1200220FA87
:1003A00002F001FA04F340EA0300294630BD21FAC5
:1003B00004F0294630BD94F0000F83F4801306BF8B
:1003C00081F480110134013D4EE77FEA645C18BF7F
:1003D0007FEA655C29D094EA050F08BF90EA020F16
:1003E00005D054EA000C04BF1946104630BD91EA0E
:1003F000030F1EBF0021002030BD5FEA545C05D111
:100400004000494128BF41F0004130BD14F580044F
:100410003CBF01F5801130BD01F0004545F0FE41C3
:1004200041F470014FF0000030BD7FEA645C1ABFF8
:10043000194610467FEA655C1CBF0B46024650EA2F
:10044000013406BF52EA033591EA030F41F400215B
:1004500030BD00BF90F0000F04BF0021704730B5E1
:100460004FF4806404F132044FF000054FF00001B6
:1004700050E700BF90F0000F04BF0021704730B577
:100480004FF4806404F1320410F0004548BF40424C
:100490004FF000013EE700BF42004FEAE2014FEAA1
:1004A00031014FEA02701FBF12F07F4393F07F4F7C
:1004B00081F06051704732F07F4208BF704793F07F
:1004C0007F4F04BF41F40021704730B54FF4607492
:1004D00001F0004521F000411CE700BF50EA010295
:1004E00008BF704730B54FF000050AE050EA01023E
:1004F00008BF704730B511F0004502D5404261EBAE
:1005000041014FF4806404F132045FEA915C3FF4EE
:10051000D8AE4FF003025FEADC0C18BF03325FEA8B
:10052000DC0C18BF033202EBDC02C2F1200300FA3C
:1005300003FC20FA02F001FA03FE40EA0E0021FA61
:1005400002F11444BDE600BF4A0011D212F50012B8
:1005500011D20DD56FF47873B3EB62520ED44FEA1B
:10056000C12343F0004343EA505323FA02F070479B
:100570004FF00000704750EA013002D14FF0FF30D9
:1005800070474FF00000704753B94AB9002908BFBF
:1005900000281CBF4FF0FF314FF0FF3000F06AB968
:1005A000ADF1080C6DE904CE00F006F8DDF804E0CA
:1005B000DDE9022304B070472DE9F047089D0C46A1
:1005C000002B4ED194468C458646B2FA82F262D90F
:1005D0004AB1C2F12003914020FA03F30CFA02FC65
:1005E000194300FA02FE4FEA1C471FFA8CF6B1FBD2
:1005F000F7F44FEA1E4307FB141143EA014304FBDF
:1006000006F199420AD91CEB030304F1FF3080F094
:100610001281994240F20F81023C6344591A1FFA39
:100620008EF3B1FBF7F007FB101143EA014300FB27
:1006300006F69E420AD91CEB030300F1FF3180F05D
:10064000FC809E4240F2F980634402389B1B40EAE2
:10065000044000211DB1D3400022C5E90032BDE8AD
:10066000F0878B4205D90DB1C5E90001002108468C
:10067000F5E7B3FA83F1002946D1A34202D39042B1
:10068000C0F0F080861A64EB03030120002DE6D051
:10069000C5E90063E3E7002A40F09080A1EB0C0479
:1006A0004FEA1C481FFA8CF70121B4FBF8F64FEA19
:1006B0001E4308FB164443EA044307FB06F0984236
:1006C00008D91CEB030306F1FF3402D2984200F272
:1006D000CD8026461C1A1FFA8EF3B4FBF8F008FBF7
:1006E000104443EA044300FB07F79F4208D91CEB80
:1006F000030300F1FF3402D29F4200F2B080204693
:10070000DB1B40EA0640A5E7C1F120068B4022FA38
:1007100006F71F4320FA06FC04FA01F343EA0C0330
:10072000F44000FA01F8380C4FEA1349B4FBF0FE2C
:100730001FFA87FC00FB1E4449EA04440EFB0CF937
:10074000A14502FA01F20AD93C190EF1FF3A80F0F4
:100750008480A14540F28180AEF1020E3C44A4EBBE
:1007600009041FFA83F9B4FBF0F300FB134449EAD0
:10077000044403FB0CFCA44507D93C1903F1FF30EA
:1007800067D2A44565D9023B3C4443EA0E40A0FB36
:100790000293A4EB0C049C42CE469C4651D34ED00F
:1007A00055B1B8EB0E0364EB0C0404FA06F6CB402B
:1007B0001E43CC40C5E90064002150E7C2F120038C
:1007C00020FA03F10CFA02FC24FA03F394400C43E0
:1007D0004FEA1C4800FA02FE1FFA8CF7B3FBF8F050
:1007E00008FB1031230C43EA014300FB07F1994257
:1007F00008D91CEB030300F1FF362CD299422AD909
:10080000023863445B1AA4B2B3FBF8F108FB11335E
:1008100044EA034401FB07F3A34208D91CEB040498
:1008200001F1FF3613D2A34211D902396444E41A0C
:1008300041EA004139E70446F0E6084606E7C845C4
:10084000AED2B9EB020E63EB070C0138A8E73146D4
:10085000EDE7034699E73046D4E7D6467FE76344A1
:1008600002384DE70646234608460FE7023E63443A
:1008700030E700BF704700BF10F8012B11F8013BB3
:10088000012A28BF9A42F7D0D01A7047034613F8BE
:10089000012B002AFBD1181A013870470000000014
:1008A00001F0FF01102A2BDB10F0070F08D010F821
:1008B000013B013A8B422DD010F0070F42B3F6D125
:1008C000F0B441EA012141EA014122F007047FF03E
:1008D00000070023F0E80256083C85EA010586EA95
:1008E000010685FA47F5A3FA87F586FA47F6A5FAD1
:1008F00087F68EB9EED1F0BC01F0FF0102F00702DD
:1009000032B110F8013B013A83EA010313B1F8D187
:100910000020704701387047002D06BF3546033868
:10092000073815F0010F07D1013015F4807F02BFA1
:10093000013015F4C03F0130F0BC0138704700BFF2
:1009400070B54FF0FF0C4CF4E06C1CEA11541DBF65
:100950001CEA135594EA0C0F95EA0C0F00F0DEF830
:100960002C4481EA030621EA4C5123EA4C5350EA15
:10097000013518BF52EA033541F4801143F4801366
:1009800038D0A0FB02CE4FF00005E1FB02E506F0F7
:100990000042E0FB03E54FF00006E1FB03569CF04C
:1009A000000F18BF4EF0010EA4F1FF04B6F5007F52
:1009B00064F5407404D25FEA4E0E6D4146EB0606C4
:1009C00042EAC62141EA55514FEAC52040EA5E504D
:1009D0004FEACE2EB4F1FD0C88BFBCF5E06F1ED8F7
:1009E000BEF1004F08BF5FEA500E50F1000041EB2E
:1009F000045170BD06F0004646EA010140EA0200DB
:100A000081EA0301B4EB5C04C2BFD4EB0C0541EAFC
:100A1000045170BD41F480114FF0000E013C00F311
:100A2000AB8014F1360FDEBF002001F0004170BD35
:100A3000C4F10004203C35DA0C341BDC04F114044E
:100A4000C4F1200500FA05F320FA04F001FA05F2DA
:100A500040EA020001F0004221F0004110EBD370A7
:100A600021FA04F642EB06015EEA430E08BF20EAD3
:100A7000D37070BDC4F10C04C4F1200500FA04F376
:100A800020FA05F001FA04F240EA020001F0004108
:100A900010EBD37041F100015EEA430E08BF20EA7B
:100AA000D37070BDC4F1200500FA05F24EEA020EC3
:100AB00020FA04F301FA05F243EA020321FA04F0F2
:100AC00001F0004121FA04F220EA020000EBD370A9
:100AD0005EEA430E08BF20EAD37070BD94F0000FA9
:100AE0000FD101F00046400041EB010111F4801FDD
:100AF00008BF013CF7D041EA060195F0000F18BF8E
:100B0000704703F00046520043EB030313F4801FC9
:100B100008BF013DF7D043EA0603704794EA0C0F83
:100B20000CEA135518BF95EA0C0F0CD050EA410699
:100B300018BF52EA4306D1D181EA030101F0004116
:100B40004FF0000070BD50EA410606BF104619463E
:100B500052EA430619D094EA0C0F02D150EA01364A
:100B600013D195EA0C0F05D152EA03361CBF10468B
:100B700019460AD181EA030101F0004141F0FE412A
:100B800041F470014FF0000070BD41F0FE4141F4AE
:100B9000780170BD70B54FF0FF0C4CF4E06C1CEAAE
:100BA00011541DBF1CEA135594EA0C0F95EA0C0F63
:100BB00000F0A7F8A4EB050481EA030E52EA03351E
:100BC0004FEA013100F088804FEA03334FF080553F
:100BD00045EA131343EA12634FEA022245EA11156C
:100BE00045EA10654FEA00260EF000419D4208BF1D
:100BF000964244F1FD0404F5407402D25B084FEACA
:100C00003202B61A65EB03055B084FEA32024FF475
:100C100080104FF4002CB6EB020E75EB030E22BFD2
:100C2000B61A754640EA0C005B084FEA3202B6EB92
:100C3000020E75EB030E22BFB61A754640EA5C0041
:100C40005B084FEA3202B6EB020E75EB030E22BFD1
:100C5000B61A754640EA9C005B084FEA3202B6EBD2
:100C6000020E75EB030E22BFB61A754640EADC0091
:100C700055EA060E18D04FEA051545EA16754FEAF3
:100C800006164FEAC30343EA52734FEAC2025FEA11
:100C90001C1CC0D111F4801F0BD141EA00014FF0A0
:100CA00000004FF0004CB6E711F4801F04BF014371
:100CB0000020B4F1FD0C88BFBCF5E06F3FF6AFAE8D
:100CC000B5EB030C04BFB6EB020C5FEA500C50F11D
:100CD000000041EB045170BD0EF0004E4EEA1131A0
:100CE00014EB5C04C2BFD4EB0C0541EA045170BDA7
:100CF00041F480114FF0000E013C90E645EA060EEB
:100D00008DE60CEA135594EA0C0F08BF95EA0C0F18
:100D10003FF43BAF94EA0C0F0AD150EA01347FF460
:100D200034AF95EA0C0F7FF425AF104619462CE737
:100D300095EA0C0F06D152EA03353FF4FDAE10469A
:100D4000194622E750EA410618BF52EA43067FF4EB
:100D5000C5AE50EA41047FF40DAF52EA43057FF47B
:100D6000EBAE12E74FF0FF3C06E000BF4FF0010C86
:100D700002E000BF4FF0010C4DF804CD4FEA410CEA
:100D80007FEA6C5C4FEA430C18BF7FEA6C5C1BD0B7
:100D900001B050EA410C0CBF52EA430C91EA030F38
:100DA00002BF90EA020F0020704710F1000F91EA95
:100DB000030F58BF994208BF90422CBFD8176FEA63
:100DC000E37040F0010070474FEA410C7FEA6C5C31
:100DD00002D150EA013C07D14FEA430C7FEA6C5C38
:100DE000D6D152EA033CD3D05DF8040B704700BF64
:100DF0008446104662468C461946634600E000BFB2
:100E000001B5FFF7B7FF002848BF10F1000F01BD83
:100E10004DF808EDFFF7F4FF0CBF012000205DF84E
:100E200008FB00BF4DF808EDFFF7EAFF34BF0120D3
:100E300000205DF808FB00BF4DF808EDFFF7E0FF6C
:100E400094BF012000205DF808FB00BF4DF808EDBD
:100E5000FFF7CEFF94BF012000205DF808FB00BF24
:100E60004DF808EDFFF7C4FF34BF012000205DF806
:100E700008FB00BF4FEA410C7FEA6C5C02D150EAEC
:100E8000013C0AD14FEA430C7FEA6C5C02D152EA82
:100E9000033C02D14FF0000070474FF00100704753
:100EA0004FEA410212F5001215D211D56FF4787392
:100EB000B3EB625212D94FEAC12343F0004343EA35
:100EC000505311F0004F23FA02F018BF4042704710
:100ED0004FF00000704750EA013005D111F000409A
:100EE00008BF6FF0004070474FF00000704700BF30
:100EF000F0B587B000230193029303930493059305
:100F0000164B1B680BB107B0F0BD144B01221A60E1
:100F100000260096124B9A6B42F001029A639B6B7B
:100F200003F001030093009B4FF6807301930227A7
:100F30000297032504950C24059401A9094803F0A0
:100F4000FDFC4EF2B373019302970396049505944A
:100F500001A9054803F0F2FCD5E700BFF40E00201C
:100F60000038024000100240000C024010B588B06A
:100F70000022019202920392049205920692079235
:100F800014484FF02043036003F58273436082608E
:100F9000C2600261102141618261C26102624262EB
:100FA0004FF480538362C26202634263826342648D
:100FB0000F2301930293FF240394049305911123BB
:100FC000069301A904F059F908B908B010BD00F062
:100FD0007BF8FAE7F80E002008B5FFF789FF08BD97
:100FE00030B58DB000240794089409940A940B94AA
:100FF0000194294B1A6B42F004021A631A6B02F037
:1010000004020192019A02941A6B42F080021A6360
:101010001A6B02F080020292029A03941A6B42F059
:1010200001021A631A6B02F001020392039A0494FC
:101030001A6B42F002021A631A6B02F00202049267
:10104000049A05941A6B42F010021A631A6B02F0AC
:1010500010020592059A06941A6B42F008021A6370
:101060001B6B03F008030693069B0C4D01224021E5
:10107000284603F059FD22468021284603F054FDFE
:10108000C02307930123089309940A9407A92846CB
:1010900003F054FC0DB030BD0038024000000240A7
:1010A00010B504460268074B9A4204D02268054BEB
:1010B0009A4203D010BD03F0B3FBF7E7012021F003
:1010C000D5FAF7E70014004072B6FEE700B595B018
:1010D0003022002108A82FF09DFF002303930493E2
:1010E00005930693079301931F4A116C41F08051B9
:1010F0001164126C02F080520192019A02931B4A11
:10110000116841F480411160126802F48042029239
:10111000029A0222089201210B9110210C910E9249
:101120000F9308231093A82311931292042313936F
:1011300008A803F0FFFC98B90F230393022304933C
:10114000002305934FF4A05306934FF48053079365
:10115000052103A803F03EFF20B915B05DF804FB9C
:10116000FFF7B2FFFFF7B0FF003802400070004009
:1011700008B503F03BFBFFF7A9FFFFF731FFFFF7CF
:10118000F5FE00F011F800F091F900F0E5F907F034
:1011900075FC06F067FA06F03DFA24F0BDFA05206A
:1011A00003F050FBF9E7000008B50D480D4B036054
:1011B0004FF48273436000238360C3600361436123
:1011C0004FF400728261C3610362436283620A2347
:1011D000C36203F0F3FF00B908BDFFF775FFFBE73B
:1011E000480F00200038004000B589B00023039369
:1011F00004930593069307930268154B9A4202D015
:1012000009B05DF804FB0021019103F500331A6C6D
:1012100042F480421A641A6C02F480420192019AEC
:1012200002911A6B42F002021A631B6B03F0020375
:101230000293029B4FF4604303930223049303231E
:1012400006930523079303A9024803F077FBD7E72A
:10125000003800400004024082B0002100910B4B96
:101260005A6C42F480425A645A6C02F480420092F2
:10127000009A01911A6C42F080521A641B6C03F0C0
:1012800080530193019B02B0704700BF00380240B9
:1012900030B589B0044600230193214B1A6C42F00B
:1012A00020021A641B6C03F020030193019B02A926
:1012B00003A803F065FF069BCBB903F041FF03468B
:1012C000184AA2FB03239B0C013B1748174A0260F4
:1012D00040F2E732C26043600023036183608361B0
:1012E00004F024FA054630B1284609B030BD03F0B9
:1012F00027FF4300E4E70C4804F0B4F80546002853
:10130000F2D1372003F016FB0F2C01D90125EBE7B2
:1013100000222146372003F0FDFA054B1C60E3E76D
:101320000038024083DE1B43A00F00200014004061
:1013300008000020FEE7FEE7FEE7FEE7FEE7704755
:10134000704770477047000008B5024804F0D3F8B2
:1013500008BD00BFA00F00200120704708B52FF086
:10136000A7FE162303604FF0FF3008BD08B54FF00D
:10137000FF31FFF7F3FFFEE770B50C461646002578
:1013800006E0AFF30080214601F8010B01350C4661
:10139000B542F6DB304670BD70B50C4616460025EA
:1013A00004E014F8010B00F029F90135B542F8DB2F
:1013B000304670BD4FF0FF3070474FF400534B6024
:1013C00000207047012070470020704710B5034689
:1013D0000C4A0D490D48006840B10C4800680344B0
:1013E000521A934206D8094A136010BD0748084CA8
:1013F0000460F2E72FF05CFE0C2303604FF0FF3037
:10140000F3E700BF0000022000040000E80F002006
:1014100090C80120034AD2F8883043F47003C2F820
:101420008830704700ED00E00268094B9A4200D016
:10143000704782B000230193064B1A6C42F00202FF
:101440001A641B6C03F002030193019B02B0704706
:10145000000400400038024000B587B0002301932B
:10146000029303930493059302680D4B9A4202D0B2
:1014700007B05DF804FB002300930A4B1A6B42F09F
:1014800002021A631B6B03F002030093009B02230A
:1014900001930293059301A9034803F04FFAE7E78C
:1014A00000040040003802400004024000B58FB044
:1014B00000230A930B930C930D93089309930193C4
:1014C0000293039304930593069307932048214ABC
:1014D0000260A722426083606422C260036183616C
:1014E00004F024F920BB4FF480530A930AA918484A
:1014F00004F0E8F9F8B9164804F044F9F0B900230B
:101500000893099308A9124804F05CFAC8B90023AB
:1015100001930293039305930C2201A90C4804F054
:1015200095F988B90A48FFF797FF0FB05DF804FBFB
:10153000FFF7CAFDD7E7FFF7C7FDDCE7FFF7C4FDFC
:10154000DDE7FFF7C1FDE2E7FFF7BEFDEAE700BF19
:10155000EC0F00200004004008B50A480A4B036065
:101560004FF4E133436000238360C36003610C22C6
:1015700042618361C36104F066FB00B908BDFFF7F7
:10158000A3FDFBE7341000200044004000B589B003
:101590000023039304930593069307930268154B66
:1015A0009A4202D009B05DF804FB0021019103F5D5
:1015B000FA331A6C42F400321A641A6C02F40032E4
:1015C0000192019A02911A6B42F001021A631B6B9D
:1015D00003F001030293029B0C2303930223049361
:1015E000032306930723079303A9034803F0A6F9EF
:1015F000D8E700BF004400400000024000B583B0BF
:1016000001904FF6FF73012201A9034804F04BFB40
:10161000019803B05DF804FB34100020DFF834D0EB
:10162000FFF7F8FE0C480D490D4A002302E0D4589C
:10163000C4500433C4188C42F9D30A4A0A4C00231C
:1016400001E013600432A242FBD32FF037FDFFF715
:101650008FFD70470000022000000020D80E0020FF
:10166000542B0508D80E00208CC80120FEE700008E
:1016700082B0054BB3F800319BB2ADF80630BDF82F
:10168000060080B202B0704700FF076082B0ADF87C
:101690000600BDF806309BB2ADF80630BDF8063046
:1016A0009BB2024AA2F8003102B0704700FF076007
:1016B00082B0ADF80600BDF806309BB2ADF806303A
:1016C000BDF806309BB2024AA2F8FE3002B0704765
:1016D00000FF0760024BA3F8FE00A3F8001170475B
:1016E00000FF0760024B1A89024BA3F8FE207047E7
:1016F0007C10002000FF076070B505460C46404B8B
:101700009B8841F66312934217D045F210529342E0
:1017100057D03B4E7089FFF7CBFF280AFFF7B6FF83
:10172000E8B2FFF7B3FFB089FFF7C2FF200AFFF767
:10173000ADFFE0B2FFF7AAFF70BD314B9B7953BB01
:101740002F4A13881D1AADB2013DADB25089FFF783
:10175000AFFF0020FFF79AFF0020FFF797FF280A4E
:10176000FFF794FFE8B2FFF791FF254DA889FFF737
:101770009FFF200AFFF78AFFE0B2FFF787FF688824
:101780000138C0F30F20FFF781FF68880138C0B22D
:10179000FFF77CFFD0E71A4E7089FFF789FF280A10
:1017A000FFF774FFE8B2FFF771FF30880138C0F32C
:1017B0000F20FFF76BFF30880138C0B2FFF766FFDC
:1017C000D3E70F4E7089FFF773FF280AFFF75EFF1C
:1017D0007089013080B2FFF76BFFE8B2FFF756FF68
:1017E000B089FFF765FF200AFFF750FFB08901308D
:1017F00080B2FFF75DFFE0B2FFF748FF9CE700BF54
:101800007C10002010B5764B9B79012B10D02BB9A2
:10181000734B9A8841F663139A420FD00138062819
:1018200000F28880DFE800F0767472706E6C14004D
:101830006B4A918841F663129142E8D0072877D825
:10184000DFE800F072746E7004766C6A802400E049
:10185000E024634B9B8845F2105293426CD03620B3
:1018600049F24132934207D047F28972934203D042
:1018700047F29672934201D144F008042146FFF7E3
:1018800029FF574B9B8841F6631293420AD014F00C
:10189000200F54D0524A11885288914202D25048A7
:1018A0000280418045F21052934251D04C4C6089E5
:1018B000FFF7FEFE0020FFF7E9FE0020FFF7E6FE3F
:1018C00020880138C0F30F20FFF7E0FE20880138A0
:1018D000C0B2FFF7DBFEA089FFF7EAFE0020FFF7AA
:1018E000D5FE0020FFF7D2FE60880138C0F30F203C
:1018F000FFF7CCFE60880138C0B2FFF7C7FE10BD0D
:10190000A024A6E76024A4E72024A2E7C024A0E73F
:1019100040249EE780249CE740249AE7C02498E76F
:10192000202496E7602494E7A02492E7E02490E73F
:1019300000248EE700248CE74FF4585090E7284AA3
:10194000118852889142ADD9254802804180A9E78B
:10195000234C6089FFF7ACFE0020FFF797FE6089FB
:10196000013080B2FFF7A4FE0020FFF78FFE6089F0
:10197000023080B2FFF79CFE20880138C0F30F20B0
:10198000FFF784FE6089033080B2FFF791FE208864
:101990000138C0B2FFF77AFEA089FFF789FE002068
:1019A000FFF774FEA089013080B2FFF781FE0020AE
:1019B000FFF76CFEA089023080B2FFF779FE6088E5
:1019C0000138C0F30F20FFF761FEA089033080B219
:1019D000FFF76EFE60880138C0B2FFF757FE8EE752
:1019E0007C1000200000000010B50446BE20FFF768
:1019F0005FFE0520FFF74AFE2046FEF73BFD0CA3E5
:101A0000D3E90023FEF79CFFFEF79EFD80B2FFF7AF
:101A10003DFE0120FFF73AFEFF20FFF737FE0020D2
:101A2000FFF734FE0020FFF731FE10BDAFF300805A
:101A3000666666666666044008B5504B9871002875
:101A400052D1F0221A804FF4A0725A809B8845F23E
:101A50001052934221D041F6631293422ED0474A4E
:101A60002C2111812A2151812B21918145F21032A3
:101A7000934203D047F29672934206D13F4A4FF405
:101A8000A07111804FF4F071518049F60602934223
:101A900022D00020FFF7B6FE08BD384A4FF430517F
:101AA00011814FF4285151814FF42C5191814FF401
:101AB000F07111804FF448715180D7E72F4A2C21E3
:101AC00011812B2151812A2191814FF4F0711180D4
:101AD0004FF448715180C9E7284B4FF4F0721A80D7
:101AE0004FF448725A80D4E7244B4FF4A0721A8006
:101AF000F0225A809B8845F2105293420FD041F653
:101B0000631293421CD049F60602934218D01B4A36
:101B10002C2111812A2151812B2191811DE0174A0D
:101B20004FF4305111814FF4285151814FF42C5111
:101B300091814FF4487111804FF4F07151800CE0A5
:101B40000E4A2C2111812A2151812B2191814FF4A0
:101B5000487111804FF4F071518045F21032934278
:101B600003D047F29672934293D1044B4FF4F07234
:101B70001A804FF4A0725A808BE700BF7C100020BF
:101B800038B50546094B1A885C8802FB04F400212D
:101B90000846FFF7B1FDFFF7A5FD002303E0044A67
:101BA000A2F800510133A342F9D338BD7C100020C4
:101BB00000FF07602DE9F04107460E469846069D56
:101BC000141AA4B20134A4B209E0A9B20A4BA3F8D2
:101BD0000011013292B2A242F7D30136B6B24645A5
:101BE00007D831463846FFF787FDFFF77BFD002217
:101BF000F1E7BDE8F08100BF00FF076008B51120E4
:101C0000FFF756FD782002F01DFE3620FFF750FD4D
:101C10000020FFF73BFD3A20FFF74AFD0520FFF7C4
:101C200035FDB220FFF744FD0C20FFF72FFD0C20FF
:101C3000FFF72CFD0020FFF729FD3320FFF726FDDD
:101C40003320FFF723FDB720FFF732FD3520FFF7E4
:101C50001DFDBB20FFF72CFD2820FFF717FDC0203E
:101C6000FFF726FD2C20FFF711FDC220FFF720FD16
:101C70000120FFF70BFDC320FFF71AFD0B20FFF734
:101C800005FDC420FFF714FD2020FFF7FFFCC62050
:101C9000FFF70EFD0F20FFF7F9FCD020FFF708FD3E
:101CA000A420FFF7F3FCA120FFF7F0FCE020FFF7F2
:101CB000FFFCD020FFF7EAFC0120FFF7E7FC08203B
:101CC000FFF7E4FC0F20FFF7E1FC1120FFF7DEFC3B
:101CD0002A20FFF7DBFC3620FFF7D8FC5520FFF762
:101CE000D5FC4420FFF7D2FC3A20FFF7CFFC0B20B5
:101CF000FFF7CCFC0620FFF7C9FC1120FFF7C6FC5C
:101D00002020FFF7C3FCE120FFF7D2FCD020FFF733
:101D1000BDFC0220FFF7BAFC0720FFF7B7FC0A2042
:101D2000FFF7B4FC0B20FFF7B1FC1820FFF7AEFC67
:101D30003420FFF7ABFC4320FFF7A8FC4A20FFF755
:101D4000A5FC2B20FFF7A2FC1B20FFF79FFC1C200B
:101D5000FFF79CFC2220FFF799FC1F20FFF796FC61
:101D60002920FFF7A5FC08BD08B5ED20FFF7A0FC72
:101D70000120FFF78BFCFE20FFF788FCEE20FFF729
:101D800097FCDE20FFF782FC2120FFF77FFCF1208B
:101D9000FFF78EFC0120FFF779FCDF20FFF788FCBE
:101DA0001020FFF773FCC420FFF782FC8F20FFF7A1
:101DB0006DFCC620FFF77CFC0020FFF767FCE220EB
:101DC000FFF764FCE220FFF761FCE220FFF75EFC16
:101DD000BF20FFF76DFCAA20FFF758FCB020FFF7EB
:101DE00067FC0D20FFF752FC0020FFF74FFC0D2091
:101DF000FFF74CFC0020FFF749FC1120FFF746FCE1
:101E00000020FFF743FC1920FFF740FC0020FFF7FC
:101E10003DFC2120FFF73AFC0020FFF737FC2D2086
:101E2000FFF734FC0020FFF731FC3D20FFF72EFCCC
:101E30000020FFF72BFC5D20FFF728FC0020FFF7B8
:101E400025FC5D20FFF722FC0020FFF71FFCB120DE
:101E5000FFF72EFC8020FFF719FC0020FFF716FC8F
:101E60008B20FFF713FC0020FFF710FC9620FFF7F4
:101E70000DFC0020FFF70AFCB220FFF719FC002040
:101E8000FFF704FC0020FFF701FC0220FFF7FEFB38
:101E90000020FFF7FBFB0320FFF7F8FB0020FFF714
:101EA000F5FBB320FFF704FC0020FFF7EFFB002059
:101EB000FFF7ECFB0020FFF7E9FB0020FFF7E6FB54
:101EC0000020FFF7E3FB0020FFF7E0FB0020FFF717
:101ED000DDFB0020FFF7DAFB0020FFF7D7FB002037
:101EE000FFF7D4FB0020FFF7D1FB0020FFF7CEFB6C
:101EF0000020FFF7CBFB0020FFF7C8FB0020FFF717
:101F0000C5FB0020FFF7C2FB0020FFF7BFFB00204E
:101F1000FFF7BCFB0020FFF7B9FB0020FFF7B6FB83
:101F20000020FFF7B3FB0020FFF7B0FB0020FFF716
:101F3000ADFB0020FFF7AAFBB420FFF7B9FB8B2015
:101F4000FFF7A4FB0020FFF7A1FB9620FFF79EFB05
:101F50000020FFF79BFBA120FFF798FB0020FFF775
:101F600095FBB520FFF7A4FB0220FFF78FFB0020B5
:101F7000FFF78CFB0320FFF789FB0020FFF786FBB0
:101F80000420FFF783FB0020FFF780FBB620FFF75C
:101F90008FFB0020FFF77AFB0020FFF777FBB720CD
:101FA000FFF786FB0020FFF771FB0020FFF76EFBB9
:101FB0003F20FFF76BFB0020FFF768FB5E20FFF779
:101FC00065FB0020FFF762FB6420FFF75FFB00204A
:101FD000FFF75CFB8C20FFF759FB0020FFF756FB57
:101FE000AC20FFF753FB0020FFF750FBDC20FFF78E
:101FF0004DFB0020FFF74AFB7020FFF747FB002056
:10200000FFF744FB9020FFF741FB0020FFF73EFB6A
:10201000EB20FFF73BFB0020FFF738FBDC20FFF74E
:1020200035FB0020FFF732FBB820FFF741FB002013
:10203000FFF72CFB0020FFF729FB0020FFF726FB12
:102040000020FFF723FB0020FFF720FB0020FFF715
:102050001DFB0020FFF71AFB0020FFF717FBBA203B
:10206000FFF726FB2420FFF711FB0020FFF70EFBF4
:102070000020FFF70BFB0020FFF708FBC120FFF754
:1020800017FB2020FFF702FB0020FFF7FFFA542088
:10209000FFF7FCFA0020FFF7F9FAFF20FFF7F6FA46
:1020A0000020FFF7F3FAC220FFF702FB0A20FFF738
:1020B000EDFA0020FFF7EAFA0420FFF7E7FA002024
:1020C000FFF7E4FAC320FFF7F3FA3C20FFF7DEFA4C
:1020D0000020FFF7DBFA3A20FFF7D8FA0020FFF7DD
:1020E000D5FA3920FFF7D2FA0020FFF7CFFA3720D0
:1020F000FFF7CCFA0020FFF7C9FA3C20FFF7C6FA39
:102100000020FFF7C3FA3620FFF7C0FA0020FFF7E0
:10211000BDFA3220FFF7BAFA0020FFF7B7FA2F20F6
:10212000FFF7B4FA0020FFF7B1FA2C20FFF7AEFA60
:102130000020FFF7ABFA2920FFF7A8FA0020FFF7ED
:10214000A5FA2620FFF7A2FA0020FFF79FFA242025
:10215000FFF79CFA0020FFF799FA2420FFF796FA80
:102160000020FFF793FA2320FFF790FA0020FFF7F3
:102170008DFA3C20FFF78AFA0020FFF787FA362015
:10218000FFF784FA0020FFF781FA3220FFF77EFA8A
:102190000020FFF77BFA2F20FFF778FA0020FFF7E7
:1021A00075FA2C20FFF772FA0020FFF76FFA29204A
:1021B000FFF76CFA0020FFF769FA2620FFF766FAAE
:1021C0000020FFF763FA2420FFF760FA0020FFF7F2
:1021D0005DFA2420FFF75AFA0020FFF757FA232070
:1021E000FFF754FA0020FFF751FAC420FFF760FA16
:1021F0006220FFF74BFA0020FFF748FA0520FFF7AF
:1022000045FA0020FFF742FA8420FFF73FFA00204A
:10221000FFF73CFAF020FFF739FA0020FFF736FA13
:102220001820FFF733FA0020FFF730FAA420FFF759
:102230002DFA0020FFF72AFA1820FFF727FA0020CE
:10224000FFF724FA5020FFF721FA0020FFF71EFACB
:102250000C20FFF71BFA0020FFF718FA1720FFF7F2
:1022600015FA0020FFF712FA9520FFF70FFA002069
:10227000FFF70CFAF320FFF709FA0020FFF706FA40
:10228000E620FFF703FA0020FFF700FAC520FFF76A
:102290000FFA3220FFF7FAF90020FFF7F7F9442090
:1022A000FFF7F4F90020FFF7F1F96520FFF7EEF9E9
:1022B0000020FFF7EBF97620FFF7E8F90020FFF7A1
:1022C000E5F98820FFF7E2F90020FFF7DFF9C620E3
:1022D000FFF7EEF92020FFF7D9F90020FFF7D6F934
:1022E0001720FFF7D3F90020FFF7D0F90120FFF7FF
:1022F000CDF90020FFF7CAF9C720FFF7D9F9002070
:10230000FFF7C4F90020FFF7C1F90020FFF7BEF97D
:102310000020FFF7BBF9C820FFF7CAF90020FFF73C
:10232000B5F90020FFF7B2F90020FFF7AFF9002060
:10233000FFF7ACF9C920FFF7BBF90020FFF7A6F9BA
:102340000020FFF7A3F90020FFF7A0F90020FFF716
:102350009DF90020FFF79AF90020FFF797F9002078
:10236000FFF794F90020FFF791F90020FFF78EF9AD
:102370000020FFF78BF90020FFF788F90020FFF716
:1023800085F90020FFF782F90020FFF77FF9002090
:10239000FFF77CF90020FFF779F9E020FFF788F9D3
:1023A0001620FFF773F90020FFF770F91C20FFF7E4
:1023B0006DF90020FFF76AF92120FFF767F9002087
:1023C000FFF764F93620FFF761F90020FFF75EF9A7
:1023D0004620FFF75BF90020FFF758F95220FFF77E
:1023E00055F90020FFF752F96420FFF74FF900205C
:1023F000FFF74CF97A20FFF749F90020FFF746F97B
:102400008B20FFF743F90020FFF740F99920FFF7F1
:102410003DF90020FFF73AF9A820FFF737F900202F
:10242000FFF734F9B920FFF731F90020FFF72EF953
:10243000C420FFF72BF90020FFF728F9CA20FFF787
:1024400025F90020FFF722F9D220FFF71FF900201D
:10245000FFF71CF9D920FFF719F90020FFF716F94B
:10246000E020FFF713F90020FFF710F9F320FFF742
:102470000DF90020FFF70AF9E120FFF719F91620FE
:10248000FFF704F90020FFF701F91C20FFF7FEF821
:102490000020FFF7FBF82220FFF7F8F80020FFF7F5
:1024A000F5F83620FFF7F2F80020FFF7EFF84520A7
:1024B000FFF7ECF80020FFF7E9F85220FFF7E6F805
:1024C0000020FFF7E3F86420FFF7E0F80020FFF7B3
:1024D000DDF87A20FFF7DAF80020FFF7D7F88B2035
:1024E000FFF7D4F80020FFF7D1F89920FFF7CEF8D6
:1024F0000020FFF7CBF8A820FFF7C8F80020FFF76F
:10250000C5F8B920FFF7C2F80020FFF7BFF8C420D4
:10251000FFF7BCF80020FFF7B9F8CA20FFF7B6F8BC
:102520000020FFF7B3F8D220FFF7B0F80020FFF744
:10253000ADF8D820FFF7AAF80020FFF7A7F8E020B1
:10254000FFF7A4F80020FFF7A1F8F320FFF79EF8AB
:102550000020FFF79BF8E220FFF7AAF80520FFF71D
:1025600095F80020FFF792F80B20FFF78FF8002076
:10257000FFF78CF81B20FFF789F80020FFF786F89B
:102580003420FFF783F80020FFF780F84420FFF79E
:102590007DF80020FFF77AF84F20FFF777F800204A
:1025A000FFF774F86120FFF771F80020FFF76EF86D
:1025B0007920FFF76BF80020FFF768F88820FFF715
:1025C00065F80020FFF762F89720FFF75FF800201A
:1025D000FFF75CF8A620FFF759F80020FFF756F840
:1025E000B720FFF753F80020FFF750F8C220FFF79D
:1025F0004DF80020FFF74AF8C720FFF747F8002002
:10260000FFF744F8D120FFF741F80020FFF73EF82C
:10261000D620FFF73BF80020FFF738F8DD20FFF762
:1026200035F80020FFF732F8F320FFF72FF80020ED
:10263000FFF72CF8E320FFF73BF80520FFF726F81B
:102640000020FFF723F80A20FFF720F80020FFF70B
:102650001DF81C20FFF71AF80020FFF717F83320A9
:10266000FFF714F80020FFF711F84420FFF70EF8E9
:102670000020FFF70BF85020FFF708F80020FFF7C5
:1026800005F86220FFF702F80020FEF7FFFF782030
:10269000FEF7FCFF0020FEF7F9FF8820FEF7F6FFAB
:1026A0000020FEF7F3FF9720FEF7F0FF0020FEF773
:1026B000EDFFA620FEF7EAFF0020FEF7E7FFB720B8
:1026C000FEF7E4FF0020FEF7E1FFC220FEF7DEFF89
:1026D0000020FEF7DBFFC720FEF7D8FF0020FEF743
:1026E000D5FFD120FEF7D2FF0020FEF7CFFFD52087
:1026F000FEF7CCFF0020FEF7C9FFDD20FEF7C6FF86
:102700000020FEF7C3FFF320FEF7C0FF0020FEF716
:10271000BDFFE420FEF7CCFF0120FEF7B7FF00204D
:10272000FEF7B4FF0120FEF7B1FF0020FEF7AEFF79
:102730000220FEF7ABFF0020FEF7A8FF2A20FEF7DD
:10274000A5FF0020FEF7A2FF3C20FEF79FFF002020
:10275000FEF79CFF4B20FEF799FF0020FEF796FF47
:102760005D20FEF793FF0020FEF790FF7420FEF738
:102770008DFF0020FEF78AFF8420FEF787FF0020F0
:10278000FEF784FF9320FEF781FF0020FEF77EFF17
:10279000A220FEF77BFF0020FEF778FFB320FEF7B4
:1027A00075FF0020FEF772FFBE20FEF76FFF0020CE
:1027B000FEF76CFFC420FEF769FF0020FEF766FFFE
:1027C000CD20FEF763FF0020FEF760FFD320FEF769
:1027D0005DFF0020FEF75AFFDD20FEF757FF0020C7
:1027E000FEF754FFF320FEF751FF0020FEF74EFFE7
:1027F000E520FEF75DFF0020FEF748FF0020FEF712
:1028000045FF0020FEF742FF0020FEF73FFF0220B9
:10281000FEF73CFF0020FEF739FF2920FEF736FFC8
:102820000020FEF733FF3C20FEF730FF0020FEF7CC
:102830002DFF4B20FEF72AFF0020FEF727FF5D202B
:10284000FEF724FF0020FEF721FF7420FEF71EFF95
:102850000020FEF71BFF8420FEF718FF0020FEF784
:1028600015FF9320FEF712FF0020FEF70FFFA220B6
:10287000FEF70CFF0020FEF709FFB320FEF706FF6E
:102880000020FEF703FFBE20FEF700FF0020FEF74A
:10289000FDFEC420FEF7FAFE0020FEF7F7FECD2075
:1028A000FEF7F4FE0020FEF7F1FED320FEF7EEFE69
:1028B0000020FEF7EBFEDC20FEF7E8FE0020FEF72E
:1028C000E5FEF320FEF7E2FE0020FEF7DFFEE62045
:1028D000FEF7EEFE1120FEF7D9FE0020FEF7D6FE31
:1028E0003420FEF7D3FE0020FEF7D0FE5620FEF780
:1028F000CDFE0020FEF7CAFE7620FEF7C7FE0020C0
:10290000FEF7C4FE7720FEF7C1FE0020FEF7BEFEF4
:102910006620FEF7BBFE0020FEF7B8FE8820FEF71B
:10292000B5FE0020FEF7B2FE9920FEF7AFFE0020B4
:10293000FEF7ACFEBB20FEF7A9FE0020FEF7A6FEC8
:102940009920FEF7A3FE0020FEF7A0FE6620FEF70A
:102950009DFE0020FEF79AFE5520FEF797FE002010
:10296000FEF794FE5520FEF791FE0020FEF78EFE46
:102970004520FEF78BFE0020FEF788FE4320FEF781
:1029800085FE0020FEF782FE4420FEF77FFE002039
:10299000FEF77CFEE720FEF78BFE3220FEF776FE88
:1029A0000020FEF773FE5520FEF770FE0020FEF7B4
:1029B0006DFE7620FEF76AFE0020FEF767FE6620B9
:1029C000FEF764FE0020FEF761FE6720FEF75EFE64
:1029D0000020FEF75BFE6720FEF758FE0020FEF7A2
:1029E00055FE8720FEF752FE0020FEF74FFE99208D
:1029F000FEF74CFE0020FEF749FEBB20FEF746FE28
:102A00000020FEF743FE9920FEF740FE0020FEF76F
:102A10003DFE7720FEF73AFE0020FEF737FE442009
:102A2000FEF734FE0020FEF731FE5620FEF72EFEA4
:102A30000020FEF72BFE2320FEF728FE0020FEF7E5
:102A400025FE3320FEF722FE0020FEF71FFE452064
:102A5000FEF71CFE0020FEF719FEE820FEF728FE18
:102A60000020FEF713FE0020FEF710FE9920FEF76F
:102A70000DFE0020FEF70AFE8720FEF707FE00206D
:102A8000FEF704FE8820FEF701FE0020FEF7FEFDA3
:102A90007720FEF7FBFD0020FEF7F8FD6620FEF72D
:102AA000F5FD0020FEF7F2FD8820FEF7EFFD002087
:102AB000FEF7ECFDAA20FEF7E9FD0020FEF7E6FD9B
:102AC000BB20FEF7E3FD0020FEF7E0FD9920FEF7B6
:102AD000DDFD0020FEF7DAFD6620FEF7D7FD0020C1
:102AE000FEF7D4FD5520FEF7D1FD0020FEF7CEFD08
:102AF0005520FEF7CBFD0020FEF7C8FD4420FEF771
:102B0000C5FD0020FEF7C2FD4420FEF7BFFD0020FA
:102B1000FEF7BCFD5520FEF7B9FD0020FEF7B6FD1F
:102B2000E920FEF7C5FDAA20FEF7B0FD0020FEF764
:102B3000ADFD0020FEF7AAFD0020FEF7A7FD002056
:102B4000FEF7B6FDAA20FEF7A1FDCF20FEF7B0FDEF
:102B50000020FEF79BFD0020FEF798FD0020FEF709
:102B600095FD0020FEF792FD0020FEF78FFD00206E
:102B7000FEF78CFD0020FEF789FD0020FEF786FDA4
:102B80000020FEF783FD0020FEF780FD0020FEF709
:102B90007DFD0020FEF77AFD0020FEF777FD002086
:102BA000FEF774FD0020FEF771FD0020FEF76EFDBC
:102BB0000020FEF76BFDF020FEF77AFD0020FEF707
:102BC00065FD5020FEF762FD0020FEF75FFD00204E
:102BD000FEF75CFD0020FEF759FDF320FEF768FDCF
:102BE0000020FEF753FDF920FEF762FD0620FEF7F8
:102BF0004DFD1020FEF74AFD2920FEF747FD00207D
:102C0000FEF744FD3A20FEF753FD5520FEF73EFD4A
:102C10001120FEF74DFD642001F014FE2920FEF77F
:102C200047FD3520FEF744FD0020FEF72FFD512023
:102C3000FEF73EFDFF20FEF729FD5320FEF738FD8D
:102C40002C20FEF723FD5520FEF732FD8220FEF7F3
:102C50001DFD2C20FEF72CFD08BD08B5CF20FEF78A
:102C600027FD0020FEF712FDC120FEF70FFD3020EA
:102C7000FEF70CFDED20FEF71BFD6420FEF706FDC0
:102C80000320FEF703FD1220FEF700FD8120FEF772
:102C9000FDFCE820FEF70CFD8520FEF7F7FC102078
:102CA000FEF7F4FC7A20FEF7F1FCCB20FEF700FDE6
:102CB0003920FEF7EBFC2C20FEF7E8FC0020FEF7A5
:102CC000E5FC3420FEF7E2FC0220FEF7DFFCF720F3
:102CD000FEF7EEFC2020FEF7D9FCEA20FEF7E8FC28
:102CE0000020FEF7D3FC0020FEF7D0FCC020FEF74A
:102CF000DFFC1B20FEF7CAFCC120FEF7D9FC012037
:102D0000FEF7C4FCC520FEF7D3FC3020FEF7BEFC66
:102D10003020FEF7BBFCC720FEF7CAFCB720FEF749
:102D2000B5FC3620FEF7C4FC4820FEF7AFFC3A2085
:102D3000FEF7BEFC5520FEF7A9FCB120FEF7B8FC5B
:102D40000020FEF7A3FC1A20FEF7A0FCB620FEF739
:102D5000AFFC0A20FEF79AFCA220FEF797FCF220B7
:102D6000FEF7A6FC0020FEF791FC2620FEF7A0FC53
:102D70000120FEF78BFCE020FEF79AFC0F20FEF707
:102D800085FC2A20FEF782FC2820FEF77FFC082025
:102D9000FEF77CFC0E20FEF779FC0820FEF776FC9F
:102DA0005420FEF773FCA920FEF770FC4320FEF7C9
:102DB0006DFC0A20FEF76AFC0F20FEF767FC00207E
:102DC000FEF764FC0020FEF761FC0020FEF75EFCCD
:102DD0000020FEF75BFCE120FEF76AFC0020FEF716
:102DE00055FC1520FEF752FC1720FEF74FFC07207C
:102DF000FEF74CFC1120FEF749FC0620FEF746FCCE
:102E00002B20FEF743FC5620FEF740FC3C20FEF74B
:102E10003DFC0520FEF73AFC1020FEF737FC0F20A2
:102E2000FEF734FC3F20FEF731FC3F20FEF72EFC7E
:102E30000F20FEF72BFC2B20FEF73AFC0020FEF7BC
:102E400025FC0020FEF722FC0120FEF71FFC3F209E
:102E5000FEF71CFC2A20FEF72BFC0020FEF716FCD8
:102E60000020FEF713FC0020FEF710FCEF20FEF719
:102E70000DFC1120FEF71CFC012001F0E3FC2920D1
:102E8000FEF716FC08BD08B555214FF47040FEF75B
:102E900021FCAA214FF20100FEF71CFC52214FF247
:102EA0000200FEF717FC08214FF20300FEF712FCA8
:102EB00001214FF20400FEF70DFC0D214FF43040CC
:102EC000FEF708FC0D214BF20100FEF703FC0D217B
:102ED0004BF20200FEF7FEFB34214FF43640FEF7C2
:102EE000F9FB34214BF20160FEF7F4FB34214BF285
:102EF0000260FEF7EFFB0D214FF43140FEF7EAFBD5
:102F00000D214BF20110FEF7E5FB0D214BF20210F3
:102F1000FEF7E0FB34214FF43740FEF7DBFB3421B2
:102F20004BF20170FEF7D6FB34214BF20270FEF734
:102F3000D1FB00214FF43240FEF7CCFB00214BF2D5
:102F40000120FEF7C7FB00214BF20220FEF7C2FB77
:102F500024214FF43840FEF7BDFB24214BF601003D
:102F6000FEF7B8FB24214BF60200FEF7B3FB01216C
:102F70004FF43F40FEF7AEFB0F214FF43340FEF716
:102F8000A9FB0F214BF20130FEF7A4FB0F214BF2FE
:102F90000230FEF79FFB34214FF43940FEF79AFBD5
:102FA00034214BF60110FEF795FB34214BF602104D
:102FB000FEF790FB08214FF43540FEF78BFB08210C
:102FC0004BF20150FEF786FB08214BF20250FEF750
:102FD00081FB03214FF44240FEF77CFB24214FF498
:102FE0003A40FEF777FB24214BF60120FEF772FBF7
:102FF00024214BF60220FEF76DFB00214FF43C40EC
:10300000FEF768FB78214BF60140FEF763FB0021D9
:103010004BF60240FEF75EFB00214FF43D40FEF709
:1030200059FB78214BF60150FEF754FB00214BF67B
:103030000250FEF74FFB00214FF43E40FEF74AFBE3
:1030400064214BF60160FEF745FB00214FF451402F
:10305000FEF740FB33214DF20110FEF73BFB002150
:103060004DF20210FEF736FB34214DF20310FEF74D
:1030700031FB00214DF20410FEF72CFB3A214DF2FA
:103080000510FEF727FB00214DF20610FEF722FB8C
:103090004A214DF20710FEF71DFB00214DF20810EA
:1030A000FEF718FB5C214DF20910FEF713FB00211F
:1030B0004DF20A10FEF70EFB81214DF20B10FEF7C8
:1030C00009FB00214DF20C10FEF704FBA6214DF286
:1030D0000D10FEF7FFFA00214DF20E10FEF7FAFA7E
:1030E000E5214DF20F10FEF7F5FA01214DF2101017
:1030F000FEF7F0FA13214DF21110FEF7EBFA012161
:103100004DF21210FEF7E6FA54214DF21310FEF7BD
:10311000E1FA01214DF21410FEF7DCFA82214DF2A2
:103120001510FEF7D7FA01214DF21610FEF7D2FA6C
:10313000CA214DF21710FEF7CDFA02214DF21810F8
:10314000FEF7C8FA00214DF21910FEF7C3FA02216A
:103150004DF21A10FEF7BEFA01214DF21B10FEF7D8
:10316000B9FA02214DF21C10FEF7B4FA34214DF2E7
:103170001D10FEF7AFFA02214DF21E10FEF7AAFA5B
:1031800067214DF21F10FEF7A5FA02214DF2201023
:10319000FEF7A0FA84214DF22110FEF79BFA0221DE
:1031A0004DF22210FEF796FAA4214DF22310FEF7FD
:1031B00091FA02214DF22410FEF78CFAB7214DF25C
:1031C0002510FEF787FA02214DF22610FEF782FA4B
:1031D000CF214DF22710FEF77DFA02214DF2281083
:1031E000FEF778FADE214DF22910FEF773FA02217C
:1031F0004DF22A10FEF76EFAF2214DF22B10FEF777
:1032000069FA02214DF22C10FEF764FAFE214DF20C
:103210002D10FEF75FFA03214DF22E10FEF75AFA39
:1032200010214DF22F10FEF755FA03214DF2301008
:10323000FEF750FA33214DF23110FEF74BFA03211D
:103240004DF23210FEF746FA6D214DF23310FEF7C3
:1032500041FA00214FF45240FEF73CFA33214DF27F
:103260000120FEF737FA00214DF20220FEF732FA74
:1032700034214DF20320FEF72DFA00214DF20420F7
:10328000FEF728FA3A214DF20520FEF723FA002135
:103290004DF20620FEF71EFA4A214DF20720FEF7F6
:1032A00019FA00214DF20820FEF714FA5C214DF2C4
:1032B0000920FEF70FFA00214DF20A20FEF70AFA64
:1032C00081214DF20B20FEF705FA00214DF20C2072
:1032D000FEF700FAA6214DF20D20FEF7FBF90021C2
:1032E0004DF20E20FEF7F6F9E5214DF20F20FEF724
:1032F000F1F901214DF21020FEF7ECF913214DF206
:103300001120FEF7E7F901214DF21220FEF7E2F954
:1033100054214DF21320FEF7DDF901214DF2142066
:10332000FEF7D8F982214DF21520FEF7D3F90121DD
:103330004DF21620FEF7CEF9CA214DF21720FEF706
:10334000C9F902214DF21820FEF7C4F900214DF20F
:103350001920FEF7BFF902214DF21A20FEF7BAF943
:1033600001214DF21B20FEF7B5F902214DF21C2080
:10337000FEF7B0F934214DF21D20FEF7ABF9022122
:103380004DF21E20FEF7A6F967214DF21F20FEF731
:10339000A1F902214DF22020FEF79CF984214DF283
:1033A0002120FEF797F902214DF22220FEF792F933
:1033B000A4214DF22320FEF78DF902214DF22420A5
:1033C000FEF788F9B7214DF22520FEF783F9022197
:1033D0004DF22620FEF77EF9CF214DF22720FEF791
:1033E00079F902214DF22820FEF774F9DE214DF221
:1033F0002920FEF76FF902214DF22A20FEF76AF923
:10340000F2214DF22B20FEF765F902214DF22C201E
:10341000FEF760F9FE214DF22D20FEF75BF9032146
:103420004DF22E20FEF756F910214DF22F20FEF717
:1034300051F903214DF23020FEF74CF933214DF2C2
:103440003120FEF747F903214DF23220FEF742F911
:103450006D214DF23320FEF73DF900214FF453402A
:10346000FEF738F933214DF20130FEF733F9002130
:103470004DF20230FEF72EF934214DF20330FEF703
:1034800029F900214DF20430FEF724F93A214DF2DA
:103490000530FEF71FF900214DF20630FEF71AF94C
:1034A0004A214DF20730FEF715F900214DF20830A0
:1034B000FEF710F95C214DF20930FEF70BF90021FF
:1034C0004DF20A30FEF706F981214DF20B30FEF77E
:1034D00001F900214DF20C30FEF7FCF8A6214DF267
:1034E0000D30FEF7F7F800214DF20E30FEF7F2F83E
:1034F000E5214DF20F30FEF7EDF801214DF21030CD
:10350000FEF7E8F813214DF21130FEF7E3F8012140
:103510004DF21230FEF7DEF854214DF21330FEF773
:10352000D9F801214DF21430FEF7D4F882214DF282
:103530001530FEF7CFF801214DF21630FEF7CAF82C
:10354000CA214DF21730FEF7C5F802214DF21830AE
:10355000FEF7C0F800214DF21930FEF7BBF802214A
:103560004DF21A30FEF7B6F801214DF21B30FEF78E
:10357000B1F802214DF21C30FEF7ACF834214DF2C7
:103580001D30FEF7A7F802214DF21E30FEF7A2F81B
:1035900067214DF21F30FEF79DF802214DF22030D9
:1035A000FEF798F884214DF22130FEF793F80221BE
:1035B0004DF22230FEF78EF8A4214DF22330FEF7B3
:1035C00089F802214DF22430FEF784F8B7214DF23C
:1035D0002530FEF77FF802214DF22630FEF77AF80B
:1035E000CF214DF22730FEF775F802214DF2283039
:1035F000FEF770F8DE214DF22930FEF76BF802215C
:103600004DF22A30FEF766F8F2214DF22B30FEF72C
:1036100061F802214DF22C30FEF75CF8FE214DF2EC
:103620002D30FEF757F803214DF22E30FEF752F8F9
:1036300010214DF22F30FEF74DF803214DF23030BE
:10364000FEF748F833214DF23130FEF743F80321FD
:103650004DF23230FEF73EF86D214DF23330FEF779
:1036600039F800214FF45440FEF734F833214DF27D
:103670000140FEF72FF800214DF20240FEF72AF834
:1036800034214DF20340FEF725F800214DF20440AD
:10369000FEF720F83A214DF20540FEF71BF8002115
:1036A0004DF20640FEF716F84A214DF20740FEF7AC
:1036B00011F800214DF20840FEF70CF85C214DF2A4
:1036C0000940FEF707F800214DF20A40FEF702F824
:1036D00081214DF20B40FDF7FDFF00214DF20C4022
:1036E000FDF7F8FFA6214DF20D40FDF7F3FF002195
:1036F0004DF20E40FDF7EEFFE5214DF20F40FDF7D4
:10370000E9FF01214DF21040FDF7E4FF13214DF2D6
:103710001140FDF7DFFF01214DF21240FDF7DAFF06
:1037200054214DF21340FDF7D5FF01214DF2144015
:10373000FDF7D0FF82214DF21540FDF7CBFF0121AF
:103740004DF21640FDF7C6FFCA214DF21740FDF7B6
:10375000C1FF02214DF21840FDF7BCFF00214DF2E0
:103760001940FDF7B7FF02214DF21A40FDF7B2FFF5
:1037700001214DF21B40FDF7ADFF02214DF21C402F
:10378000FDF7A8FF34214DF21D40FDF7A3FF0221F4
:103790004DF21E40FDF79EFF67214DF21F40FDF7E1
:1037A00099FF02214DF22040FDF794FF84214DF254
:1037B0002140FDF78FFF02214DF22240FDF78AFFE5
:1037C000A4214DF22340FDF785FF02214DF2244054
:1037D000FDF780FFB7214DF22540FDF77BFF022169
:1037E0004DF22640FDF776FFCF214DF22740FDF741
:1037F00071FF02214DF22840FDF76CFFDE214DF2F2
:103800002940FDF767FF02214DF22A40FDF762FFD4
:10381000F2214DF22B40FDF75DFF02214DF22C40CD
:10382000FDF758FFFE214DF22D40FDF753FF032118
:103830004DF22E40FDF74EFF10214DF22F40FDF7C7
:1038400049FF03214DF23040FDF744FF33214DF293
:103850003140FDF73FFF03214DF23240FDF73AFFC3
:103860006D214DF23340FDF735FF00214FF45540F7
:10387000FDF730FF33214DF20150FDF72BFF002102
:103880004DF20250FDF726FF34214DF20350FDF7B3
:1038900021FF00214DF20450FDF71CFF3A214DF2AB
:1038A0000550FDF717FF00214DF20650FDF712FFFE
:1038B0004A214DF20750FDF70DFF00214DF208504F
:1038C000FDF708FF5C214DF20950FDF703FF0021D1
:1038D0004DF20A50FDF7FEFE81214DF20B50FDF72F
:1038E000F9FE00214DF20C50FDF7F4FEA6214DF239
:1038F0000D50FDF7EFFE00214DF20E50FDF7EAFEF0
:10390000E5214DF20F50FDF7E5FE01214DF210507B
:10391000FDF7E0FE13214DF21150FDF7DBFE012112
:103920004DF21250FDF7D6FE54214DF21350FDF723
:10393000D1FE01214DF21450FDF7CCFE82214DF253
:103940001550FDF7C7FE01214DF21650FDF7C2FEDE
:10395000CA214DF21750FDF7BDFE02214DF218505D
:10396000FDF7B8FE00214DF21950FDF7B3FE02211C
:103970004DF21A50FDF7AEFE01214DF21B50FDF73E
:10398000A9FE02214DF21C50FDF7A4FE34214DF298
:103990001D50FDF79FFE02214DF21E50FDF79AFECD
:1039A00067214DF21F50FDF795FE02214DF2205088
:1039B000FDF790FE84214DF22150FDF78BFE022190
:1039C0004DF22250FDF786FEA4214DF22350FDF763
:1039D00081FE02214DF22450FDF77CFEB7214DF20D
:1039E0002550FDF777FE02214DF22650FDF772FEBD
:1039F000CF214DF22750FDF76DFE02214DF22850E8
:103A0000FDF768FEDE214DF22950FDF763FE02212D
:103A10004DF22A50FDF75EFEF2214DF22B50FDF7DC
:103A200059FE02214DF22C50FDF754FEFE214DF2BD
:103A30002D50FDF74FFE03214DF22E50FDF74AFEAB
:103A400010214DF22F50FDF745FE03214DF230506D
:103A5000FDF740FE33214DF23150FDF73BFE0321CF
:103A60004DF23250FDF736FE6D214DF23350FDF729
:103A700031FE00214FF45640FDF72CFE33214DF26C
:103A80000160FDF727FE00214DF20260FDF722FEE6
:103A900034214DF20360FDF71DFE00214DF204605C
:103AA000FDF718FE3A214DF20560FDF713FE0021E7
:103AB0004DF20660FDF70EFE4A214DF20760FDF75C
:103AC00009FE00214DF20860FDF704FE5C214DF275
:103AD0000960FDF7FFFD00214DF20A60FDF7FAFDD8
:103AE00081214DF20B60FDF7F5FD00214DF20C60D8
:103AF000FDF7F0FDA6214DF20D60FDF7EBFD002175
:103B00004DF20E60FDF7E6FDE5214DF20F60FDF789
:103B1000E1FD01214DF21060FDF7DCFD13214DF2B6
:103B20001160FDF7D7FD01214DF21260FDF7D2FDC6
:103B300054214DF21360FDF7CDFD01214DF21460CB
:103B4000FDF7C8FD82214DF21560FDF7C3FD01218F
:103B50004DF21660FDF7BEFDCA214DF21760FDF76C
:103B6000B9FD02214DF21860FDF7B4FD00214DF2C0
:103B70001960FDF7AFFD02214DF21A60FDF7AAFDB5
:103B800001214DF21B60FDF7A5FD02214DF21C60E5
:103B9000FDF7A0FD34214DF21D60FDF79BFD0221D4
:103BA0004DF21E60FDF796FD67214DF21F60FDF797
:103BB00091FD02214DF22060FDF78CFD84214DF234
:103BC0002160FDF787FD02214DF22260FDF782FDA5
:103BD000A4214DF22360FDF77DFD02214DF224600A
:103BE000FDF778FDB7214DF22560FDF773FD022149
:103BF0004DF22660FDF76EFDCF214DF22760FDF7F7
:103C000069FD02214DF22860FDF764FDDE214DF2D1
:103C10002960FDF75FFD02214DF22A60FDF75AFD94
:103C2000F2214DF22B60FDF755FD02214DF22C6083
:103C3000FDF750FDFE214DF22D60FDF74BFD0321F8
:103C40004DF22E60FDF746FD10214DF22F60FDF77D
:103C500041FD03214DF23060FDF73CFD33214DF273
:103C60003160FDF737FD03214DF23260FDF732FD83
:103C70006D214DF23360FDF72DFD55214FF470405D
:103C8000FDF728FDAA214FF20100FDF723FD522187
:103C90004FF20200FDF71EFD08214FF20300FDF771
:103CA00019FD00214FF20400FDF714FDCC214FF463
:103CB0003140FDF70FFD00214BF20110FDF70AFD29
:103CC00005214FF43640FDF705FD70214FF43740D4
:103CD000FDF700FD70214BF20170FDF7FBFC0121A7
:103CE0004FF43840FDF7F6FC03214BF60100FDF7D9
:103CF000F1FC03214BF60200FDF7ECFC03214BF62F
:103D00000300FDF7E7FC02214FF43C40FDF7E2FC25
:103D100000214BF60140FDF7DDFC00214BF602408F
:103D2000FDF7D8FCD0214FF44940FDF7D3FC022128
:103D30004CF60110FDF7CEFC50214CF60210FDF7B9
:103D4000C9FC50214CF60310FDF7C4FC50214CF681
:103D50000410FDF7BFFC00214FF45450FDF7BAFCEE
:103D600055214FF46850FDF7B5FC4FF48850FDF72E
:103D70009FFC012000F066FD4FF42450FDF798FCF5
:103D800008BD08B51120FDF793FC782000F05AFD1E
:103D90003620FDF78DFC4820FDF778FC3A20FDF732
:103DA00087FC5520FDF772FCF020FDF781FCC32055
:103DB000FDF76CFCF020FDF77BFC9620FDF766FC20
:103DC000B420FDF775FC0120FDF760FCB620FDF77F
:103DD0006FFC0A20FDF75AFCA220FDF757FCB72024
:103DE000FDF766FCC620FDF751FCB920FDF760FC2D
:103DF0000220FDF74BFCE020FDF748FCC020FDF75A
:103E000057FC8020FDF742FC1620FDF73FFCC12047
:103E1000FDF74EFC1920FDF739FCC220FDF748FCE8
:103E2000A720FDF733FCC520FDF742FC1620FDF767
:103E30002DFCE820FDF73CFC4020FDF727FC8A2004
:103E4000FDF724FC0020FDF721FC0020FDF71EFCFF
:103E50002920FDF71BFC1920FDF718FCA520FDF714
:103E600015FC3320FDF712FCE020FDF721FCF020CB
:103E7000FDF70CFC0720FDF709FC0D20FDF706FC03
:103E80000420FDF703FC0520FDF700FC1420FDF7DE
:103E9000FDFB3620FDF7FAFB5420FDF7F7FB4C2025
:103EA000FDF7F4FB3820FDF7F1FB1320FDF7EEFBE7
:103EB0001420FDF7EBFB2E20FDF7E8FB3420FDF787
:103EC000E5FBE120FDF7F4FBF020FDF7DFFB102020
:103ED000FDF7DCFB1420FDF7D9FB0E20FDF7D6FB28
:103EE0000C20FDF7D3FB0820FDF7D0FB3520FDF7B4
:103EF000CDFB4420FDF7CAFB4C20FDF7C7FB262075
:103F0000FDF7C4FB1020FDF7C1FB1220FDF7BEFB3F
:103F10002C20FDF7BBFB3220FDF7B8FBF020FDF7AE
:103F2000C7FB3C20FDF7B2FBF020FDF7C1FB692089
:103F3000FDF7ACFB782000F085FC2120FDF7B8FBF5
:103F40002920FDF7B5FB08BD08B5FF20FDF7B0FB44
:103F5000FF20FDF79BFB9820FDF798FB0620FDF75F
:103F600095FBBC20FDF7A4FB0120FDF78FFB0F2084
:103F7000FDF78CFB6120FDF789FBFF20FDF786FB39
:103F80000120FDF783FB0120FDF780FB0B20FDF7EF
:103F90007DFB1020FDF77AFB3720FDF777FB6320D0
:103FA000FDF774FBFF20FDF771FBFF20FDF76EFBB3
:103FB0000120FDF76BFB0120FDF768FB0020FDF7FA
:103FC00065FB0020FDF762FBFF20FDF75FFB522041
:103FD000FDF75CFB0120FDF759FB0020FDF756FBC8
:103FE0004020FDF753FBBD20FDF762FB0120FDF7EC
:103FF0004DFB2320FDF74AFB4520FDF747FB6720DB
:10400000FDF744FB0120FDF741FB2320FDF73EFBBC
:104010004520FDF73BFB6720FDF738FBBE20FDF791
:1040200047FB0020FDF732FB0120FDF72FFBAB2003
:10403000FDF72CFB6020FDF729FB2220FDF726FB76
:104040002220FDF723FB2220FDF720FB2220FDF795
:104050001DFB2220FDF71AFBC720FDF729FB3620A8
:10406000FDF714FBED20FDF723FB7F20FDF70EFB92
:104070000F20FDF70BFBC020FDF71AFB0F20FDF70B
:1040800005FB0B20FDF702FB0A20FDF7FFFAFC20E1
:10409000FDF70EFB0820FDF7F9FADF20FDF708FB1E
:1040A0000020FDF7F3FA0020FDF7F0FA0020FDF7FD
:1040B000EDFA0020FDF7EAFA0020FDF7E7FA2020EC
:1040C000FDF7E4FAF320FDF7F3FA7420FDF7DEFACA
:1040D000B420FDF7EDFA0020FDF7D8FA0020FDF737
:1040E000D5FA0020FDF7D2FAF720FDF7E1FA822099
:1040F000FDF7CCFAB120FDF7DBFA0020FDF7C6FA98
:104100001320FDF7C3FA1320FDF7C0FAF220FDF7E4
:10411000CFFA8020FDF7BAFA0420FDF7B7FA402065
:10412000FDF7B4FA2820FDF7B1FAC120FDF7C0FA77
:104130001720FDF7ABFA8820FDF7A8FA8820FDF7D5
:10414000A5FA2020FDF7A2FAE020FDF7B1FA002041
:10415000FDF79CFA0A20FDF799FA1220FDF796FA6E
:104160001020FDF793FA0E20FDF790FA2020FDF7BE
:104170008DFACC20FDF78AFA0720FDF787FA062092
:10418000FDF784FA0B20FDF781FA0E20FDF77EFA89
:104190000F20FDF77BFA0D20FDF778FA1520FDF7CB
:1041A00075FA1020FDF772FA0020FDF76FFAE12092
:1041B000FDF77EFA0020FDF769FA0B20FDF766FA9D
:1041C0001320FDF763FA0D20FDF760FA0E20FDF7CE
:1041D0005DFA1B20FDF75AFA7120FDF757FA062009
:1041E000FDF754FA0620FDF751FA0A20FDF74EFAC2
:1041F0000F20FDF74BFA0E20FDF748FA0F20FDF7D0
:1042000045FA1520FDF742FA0C20FDF73FFA002091
:10421000FDF73CFA2A20FDF74BFA0020FDF736FAAD
:104220000020FDF733FA0120FDF730FADF20FDF71B
:104230002DFA2B20FDF73CFA0020FDF727FA00208D
:10424000FDF724FA0320FDF721FA1F20FDF71EFADF
:104250003A20FDF72DFA5520FDF718FA3620FDF724
:1042600027FA0020FDF712FA1120FDF721FA782035
:1042700000F0E8FA2920FDF71BFA142000F0E2FA1A
:104280002C20FDF715FA08BD08B5E220FDF710FA5D
:104290001D20FDF7FBF90220FDF7F8F90420FDF7DA
:1042A000F5F9012000F0CEFAE020FDF701FA012037
:1042B000FDF7ECF9012000F0C5FAE020FDF7F8F970
:1042C0000320FDF7E3F9012000F0BCFA0120FDF71F
:1042D000EFF9012000F0B6FAE620FDF7E9F92F200A
:1042E000FDF7D4F9FF20FDF7D1F9FF20FDF7CEF956
:1042F000B020FDF7DDF92020FDF7C8F90020FDF71B
:10430000C5F90320FDF7C2F940F21F30FDF7BEF9F1
:104310000120FDF7BBF940F2DF10FDF7B7F90020EF
:10432000FDF7B4F9B420FDF7C3F90420FDF7AEF9A9
:1043300040F21F40FDF7AAF90020FDF7A7F92E2053
:10434000FDF7A4F90020FDF7A1F90020FDF79EF983
:104350000020FDF79BF90020FDF798F9B620FDF746
:10436000A7F90220FDF792F94FF40370FDF78EF9DB
:104370000020FDF78BF91720FDF788F91520FDF7D0
:1043800085F90020FDF782F90020FDF77FF9F02084
:10439000FDF78EF90320FDF779F92920FDF788F95B
:1043A000D020FDF785F90020FDF770F9BE20FDF75C
:1043B0007FF90520FDF76AF9FE20FDF767F9012076
:1043C000FDF764F90020FDF761F90020FDF75EF9C3
:1043D0000020FDF75BF9B820FDF76AF90320FDF72F
:1043E00055F90120FDF752F9BA20FDF761F90120D6
:1043F000FDF74CF908BD0000F0B599B00024009419
:10440000794B1A6B42F040021A631A6B02F04002B9
:104410000092009A01941A6B42F008021A631A6B18
:1044200002F008020192019A02941A6B42F008020B
:104430001A631A6B02F008020292029A03941A6B32
:1044400042F040021A631A6B02F040020392039A90
:1044500004941A6B42F002021A631B6B03F002030E
:104460000493049B8023139302231493012715972D
:1044700016930C2317935D4D13A9284600F05EFA9E
:104480002023139313A9284600F058FA10261396F8
:1044900013A9284600F052FA4FF40053139313A9BE
:1044A000284600F04BFA4FF400431393149713A9D6
:1044B0004F4800F043FA4F484FF02043036003F5A4
:1044C0008273436006238360C46046618461C46173
:1044D00044624FF480538362C4624FF480430363A9
:1044E000446384630F230C930D943C230E93129426
:1044F00009230593069407930B9405AA0CA900F0D1
:10450000BCFE322000F09EF9D320FDF7D1F8FDF774
:10451000AFF8394CA080FDF7ABF8A080FDF7A8F804
:10452000A0800002A080FDF7A3F8A388184380B202
:10453000A08049F24133984262D12F4CA1882F4884
:104540002CF0EEFCA38847F28972934200F01681AA
:1045500049F24132934200F0148145F21032934205
:1045600000F0128147F29672934200F0108145F2FA
:104570001052934200F00E8149F60602934200F079
:104580000C8141F66312934200F00A811A4B9B881A
:1045900047F28972934200F0098149F24132934215
:1045A00000F0048141F66312934200F0FF8045F26F
:1045B000103293420CD047F29672934208D045F2E3
:1045C0001052934204D049F60602934240F0F8801C
:1045D0000223059307930748036B826805A9406887
:1045E00001F020FCECE000BF00380240000C02406B
:1045F000000402408C1000207C100020605803084A
:104600000420FDF755F8FDF733F8A080FDF730F8EA
:10461000A080FDF72DF8A0800002A080FDF728F80B
:10462000A388184380B2A08048F25253984200F009
:10463000A1806B4B9A8847F289739A423FF47DAF11
:10464000D420FDF735F8FDF713F8654CA080FDF791
:104650000FF8A080FDF70CF8A0800002A080FDF705
:1046600007F8A388184380B2A08045F2103398421F
:104670003FF463AFD320FDF71BF8FCF7F9FFA080F0
:10468000FCF7F6FFA080FCF7F3FFA0800002A080FB
:10469000FCF7EEFFA388184380B2A08047F2967320
:1046A00098423FF44AAF55214FF47040FDF712F89D
:1046B000AA214FF20100FDF70DF852214FF202003E
:1046C000FDF708F808214FF20300FDF703F8012178
:1046D0004FF20400FCF7FEFF4FF44540FCF7E8FF03
:1046E000FCF7C6FFA0800002A0804CF20150FCF74E
:1046F000DFFFFCF7BDFFA3880343A380052000F084
:10470000A1F8A28845F210539A423FF416AFD32085
:10471000FCF7CEFFFCF7ACFFA080FCF7A9FFA08060
:10472000FCF7A6FFA0800002A080FCF7A1FFA388F1
:1047300003439BB2A38049F6060293423FF4FDAEC9
:10474000A120FCF7B5FFFCF793FFA080FCF790FFDA
:10475000A0800002A080FCF78BFFA38803439BB2DC
:10476000A38045F2617293427FF4E7AE41F6631293
:10477000A280E2E647F28972A2805AE7FDF73EFA8C
:1047800004E7FEF76AFA01E7FDF7EEFAFEE6FFF747
:10479000F8FAFBE6FEF777FBF8E6FFF7D5FBF5E660
:1047A000FFF772FD6420FDF71FF9EFE60323059381
:1047B00007930C48036B826805A9406801F032FB3F
:1047C0000020FDF739F901224FF40041064800F0BE
:1047D000ABF94FF6FF70FDF7D3F919B0F0BD00BF8C
:1047E0007C1000208C1000200004024008B50B4B08
:1047F0001A6842F400721A601A6842F480621A6001
:104800001A6842F480721A60032000F071F80F20D9
:10481000FCF73EFDFCF720FD002008BD003C0240F7
:10482000034A1168034B1B780B441360704700BFA9
:10483000DC10002004000020014B1868704700BF06
:10484000DC10002038B50446FFF7F6FF0546B4F14A
:10485000FF3F02D0044B1B781C44FFF7EDFF401BC9
:10486000A042FAD338BD00BF04000020002807DBB7
:1048700000F01F02400901239340024A42F8203011
:10488000704700BF00E100E0002808DB0901C9B261
:1048900000F1604000F5614080F80013704700F0BF
:1048A0000F000901C9B2014B1954704714ED00E023
:1048B00000B500F00700C0F1070CBCF1040F28BFE1
:1048C0004FF0040C031D062B0FD9C31E4FF0FF3E03
:1048D0000EFA0CF021EA000199400EFA03FE22EADA
:1048E0000E0241EA02005DF804FB0023EEE700003F
:1048F000074AD36823F4E0631B041B0C000200F496
:10490000E060034343F0BF6343F40033D360704778
:1049100000ED00E010B50446054BD868C0F3022056
:10492000FFF7C6FF01462046FFF7AEFF10BD00BFF0
:1049300000ED00E008B5FFF799FF08BD00230F2B3D
:1049400000F2E98070B582B065E085684FEA430EF9
:10495000032404FA0EF425EA0405CC6804FA0EF4E4
:104960002C438460446824EA02044A68C2F30012BB
:104970009A40224342605CE0DC08083450F824206E
:1049800003F00705AD004FF00F0E0EFA05FE22EA08
:104990000E0E0A69AA4042EA0E0240F824205CE0AA
:1049A000072200E0002202FA0EF22A4302345A4D96
:1049B00045F82420594A94686FEA0C0224EA0C0551
:1049C0004E6816F4801F01D04CEA0405534CA560D4
:1049D000E46802EA04054E6816F4001F01D04CEAB0
:1049E00004054E4CE560646802EA04054E6816F45E
:1049F000003F01D04CEA0405484C65602468224021
:104A00004D6815F4803F01D04CEA0402434C22600B
:104A100001330F2B7DD801229A400C6804EA020C66
:104A200032EA0404F4D14C6804F00304013C012C84
:104A30008BD94A6802F00302032A09D0C4685D00DA
:104A40000322AA4024EA02048A68AA402243C260E0
:104A50004A6802F00302022A8ED004684FEA430E2D
:104A6000032202FA0EF224EA02044A6802F0030268
:104A700002FA0EF2224302604A6812F4403FC7D0A5
:104A800000220192264A546C44F480445464526CCF
:104A900002F480420192019A9C08A51C1E4A52F819
:104AA000255003F0030E4FEA8E0E0F2202FA0EF28B
:104AB00025EA02051B4A90423FF474AF02F580627A
:104AC00090421AD002F58062904218D002F58062BE
:104AD000904216D002F58062904214D002F58062B6
:104AE000904212D002F58062904210D002F58062AE
:104AF00090423FF455AF082255E7012253E70222C6
:104B000051E703224FE704224DE705224BE7062237
:104B100049E702B070BD704700380140003C0140D9
:104B200000380240000002400AB181617047090468
:104B300081617047002800F0E08170B582B00446C2
:104B4000036813F0010F3BD09F4B9B6803F00C03ED
:104B5000042B2CD09C4B9B6803F00C03082B21D01A
:104B60006368B3F5803F4FD0B3F5A02F52D0964B7A
:104B70001A6822F480321A601A6822F480221A60BD
:104B80006368002B50D0FFF757FE05468E4B1B681D
:104B900013F4003F14D1FFF74FFE401B6428F5D9F2
:104BA0000320B1E1884B5B6813F4800FD8D0864BAB
:104BB0001B6813F4003F03D06368002B00F09F8153
:104BC000236813F0020F54D07F4B9B6813F00C0F37
:104BD0003ED07D4B9B6803F00C03082B33D0E36879
:104BE000002B68D0794B01221A60FFF725FE05469D
:104BF000754B1B6813F0020F54D1FFF71DFE401BCD
:104C00000228F5D903207FE16F4A136843F480330B
:104C10001360B5E76C4B1A6842F480221A601A6878
:104C200042F480321A60ABE7FFF706FE0546664B9A
:104C30001B6813F4003FC3D0FFF7FEFD401B642840
:104C4000F5D9032060E1604B5B6813F4800FC6D197
:104C50005D4B1B6813F0020F03D0E368012B40F09B
:104C60005081594A136823F0F803216943EAC103CC
:104C70001360236813F0080F42D063696BB3534B82
:104C80000122C3F8802EFFF7D7FD05464E4B5B6F20
:104C900013F0020F34D1FFF7CFFD401B0228F5D9E6
:104CA000032031E1484A136823F0F803216943EAFD
:104CB000C1031360DDE7454B00221A60FFF7BCFD1E
:104CC0000546414B1B6813F0020FD2D0FFF7B4FD2D
:104CD000401B0228F5D9032016E13C4B0022C3F803
:104CE000802EFFF7A9FD0546374B5B6F13F0020FCF
:104CF00006D0FFF7A1FD401B0228F5D9032003E1F0
:104D0000236813F0040F77D02F4B1B6C13F0805FD8
:104D100033D1002301932C4B1A6C42F080521A6459
:104D20001B6C03F080530193019B0125284B1B68EA
:104D300013F4807F23D0A368012B34D0052B38D007
:104D4000214B1A6F22F001021A671A6F22F0040237
:104D50001A67A368002B3DD0FFF76EFD06461A4B7D
:104D60001B6F13F0020F46D1FFF766FD801B41F267
:104D700088339842F3D90320C6E00025D6E7144AC9
:104D8000136843F480731360FFF756FD0646104B1B
:104D90001B6813F4807FCED1FFF74EFD801B0228E5
:104DA000F5D90320B0E0084A136F43F001031367FD
:104DB000CFE7054B1A6F42F004021A671A6F42F0F0
:104DC00001021A67C5E700BF0038024000004742F1
:104DD00000700040FFF730FD0646524B1B6F13F08A
:104DE000020F08D0FFF728FD801B41F2883398425C
:104DF000F3D9032088E0EDB9A369002B00F083808C
:104E0000484A926802F00C02082A51D0022B17D0AF
:104E1000454B00221A66FFF70FFD0446414B1B6805
:104E200013F0007F42D0FFF707FD001B0228F5D9E1
:104E3000032069E03B4A136C23F080531364DBE7E3
:104E4000394B00221A66FFF7F7FC0546354B1B6805
:104E500013F0007F06D0FFF7EFFC401B0228F5D9C6
:104E6000032051E0E369226A1343626A43EA821332
:104E7000A26A5208013A43EA0243E26A43EA026341
:104E8000284A5360284B01221A66FFF7D5FC0446D6
:104E9000244B1B6813F0007F06D1FFF7CDFC001BED
:104EA0000228F5D903202FE000202DE000202BE080
:104EB000012B2BD01B4B5B6803F48001E26991420C
:104EC00026D103F03F02216A8A4223D1616A47F664
:104ED000C0721A40B2EB811F1ED103F44031A26AA6
:104EE0005208013AB1EB024F18D103F07063E26A45
:104EF000B3EB026F14D1002006E0012070470120BF
:104F000002E0012000E0002002B070BD0120FBE7BC
:104F10000120F9E70120F7E70120F5E70120F3E799
:104F20000120F1E7003802400000474208B5264B57
:104F30009B6803F00C03042B41D0082B41D1224B7A
:104F40005A6802F03F025B6813F4800F12D01E4BC8
:104F50005968C1F388111D480023A1FB0001FBF72C
:104F600013FB194B5B68C3F3014301335B00B0FBD8
:104F7000F3F027E0144B5868C0F388104FEA401C48
:104F8000BCEB000C6EEB0E0E4FEA8E1343EA9C63F3
:104F90004FEA8C11B1EB0C0163EB0E03DB0043EA2B
:104FA0005173C90011EB000C43F100039902002377
:104FB0004FEA8C2041EA9C51FBF7E6FAD1E703481F
:104FC00000E0034808BD00BF0038024040787D0182
:104FD0000024F400002800F09B8070B50D460446C4
:104FE0004F4B1B6803F007038B4208D2CBB24C4AED
:104FF0001370136803F007038B4240F08B80236823
:1050000013F0020F17D013F0040F04D0454A936831
:1050100043F4E0539360236813F0080F04D0414A2F
:10502000936843F4604393603E4A936823F0F0032F
:10503000A1680B439360236813F0010F32D06368BB
:10504000012B21D09A1E012A25D9364A126812F066
:10505000020F61D033498A6822F0030213438B6048
:10506000FFF7EAFB06462F4B9B6803F00C036268D0
:10507000B3EB820F16D0FFF7DFFB801B41F28833C2
:105080009842F0D9032042E0264A126812F4003F09
:10509000E0D101203BE0234A126812F0007FD9D111
:1050A000012034E01E4B1B6803F00703AB4207D915
:1050B000EAB21B4B1A701B6803F00703AB422DD1F9
:1050C000236813F0040F06D0164A936823F4E053C4
:1050D000E1680B439360236813F0080F07D0114A6F
:1050E000936823F46043216943EAC1039360FFF7A7
:1050F0001DFF0C4B9B68C3F303130B4AD35CD840D2
:105100000A4B18600A4B1868FCF7C2F8002070BD03
:10511000012070470120FAE70120F8E70120F6E7B7
:10512000003C0240003802405058030800000020B4
:1051300008000020014B1868704700BF00000020E5
:1051400008B5FFF7F7FF044B9B68C3F38223034ABC
:10515000D35CD84008BD00BF00380240485803085F
:1051600008B5FFF7E7FF044B9B68C3F34233034ADC
:10517000D35CD84008BD00BF00380240485803083F
:105180000F2303600B4B9A6802F0030242609A6897
:1051900002F0F00282609A6802F4E052C2609B68FA
:1051A000DB0803F4E0530361034B1B6803F00703C0
:1051B0000B60704700380240003C024000285AD083
:1051C00010B50446436A33B94368B3F5827F05D00E
:1051D0000023C36102E00023036143610023A36253
:1051E00094F85130002B40D0022384F851302268CB
:1051F000136823F040031360636803F48273A268AA
:1052000002F404421343E26802F400621343226989
:1052100002F002021343626902F001021343A26921
:1052200002F400721343E26902F038021343226A67
:1052300002F080021343A26A02F400522168134371
:105240000B60638B03F00403626A02F010022168B2
:1052500013434B602268D36923F40063D3610020B9
:105260006065012384F8513010BD84F85030204629
:10527000FBF7BAFFB8E70120704740B370B50E46A0
:105280001546044690F84930E3B1214651F8080B21
:1052900000F070FDA2683146206800F0A1FD236B8C
:1052A000A2682946606800F0BDFD2268A16852F836
:1052B000213043F0010342F82130012384F84930C2
:1052C000002070BD80F84830FBF786FEDDE7012046
:1052D0007047000030B4036A026A22F001020262E1
:1052E0004268846924F0730C0C6844EA0C0423F0CF
:1052F000020C8B6843EA0C03114DA84203D005F55C
:105300008065A84205D123F00803CD682B4323F024
:1053100004030B4DA84203D005F58065A84207D1D0
:1053200022F440724D6945EA020C8A6942EA0C0295
:10533000426084614A684263036230BC704700BFC8
:105340000000014030B4036A026A22F480720262F3
:105350004268C46924F0730C0C6844EA0C0523F419
:1053600000738C6843EA0423114CA04203D004F577
:105370008064A04206D123F40063CC6843EA04238E
:1053800023F480630A4CA04203D004F58064A04259
:1053900007D122F440524C6942EA04128C6942EA75
:1053A00004124260C5614A68C263036230BC704740
:1053B0000000014030B4036A026A22F480520262A3
:1053C0004468C26922F4E6420D6842EA052223F4E9
:1053D00000538D6843EA0533094DA84203D005F513
:1053E0008065A84204D124F480444D6944EA8514C0
:1053F0004460C2614A680264036230BC704700BF07
:105400000000014010B4036A046A24F0010404623D
:10541000846924F0F00C4CEA021223F00A030B43D7
:10542000826103625DF8044B704710B4036A046A3A
:1054300024F010040462846924F4704C4CEA0232B3
:1054400023F0A00343EA0113826103625DF8044B79
:105450007047836823F070030B4343F007038360B6
:105460007047000090F83D30DBB2012B37D10223AA
:1054700080F83D300268D36843F00103D3600368CD
:10548000194A934220D0B3F1804F1DD0A2F57C423F
:10549000934219D002F58062934215D002F58062E2
:1054A000934211D002F5784293420DD002F570522A
:1054B000934209D0A2F59432934205D01A6842F083
:1054C00001021A60002070479A6802F00702062A5B
:1054D00007D01A6842F001021A60002070470120CC
:1054E00070470020704700BF0000014070477047C0
:1054F00070477047704770B504460368DE681D69E1
:1055000015F0020F10D016F0020F0DD06FF002024E
:105510001A610123037703689B6913F0030F5ED0C0
:10552000FFF7E6FF0023237715F0040F12D016F0E3
:10553000040F0FD023686FF004021A61022323774F
:1055400023689B6913F4407F4FD02046FFF7D0FFBC
:105550000023237715F0080F12D016F0080F0FD094
:1055600023686FF008021A61042323772368DB693C
:1055700013F0030F40D02046FFF7BAFF0023237734
:1055800015F0100F12D016F0100F0FD023686FF027
:1055900010021A61082323772368DB6913F4407F24
:1055A00031D02046FFF7A4FF0023237715F0010F29
:1055B00002D016F0010F2DD115F0800F02D016F099
:1055C000800F2FD115F0400F02D016F0400F31D1CF
:1055D00015F0200F02D016F0200F33D170BDFFF769
:1055E00086FF2046FFF785FF9CE72046FFF77FFFF9
:1055F0002046FFF77EFFABE72046FFF778FF204607
:10560000FFF777FFBAE72046FFF771FF2046FFF765
:1056100070FFC9E723686FF001021A612046FBF7AB
:105620003FFDC9E723686FF080021A61204600F051
:1056300010FAC7E723686FF040021A612046FFF7AF
:1056400059FFC5E723686FF020021A61204600F079
:10565000FFF9C3E70368344A904212D0B0F1804F9B
:105660000FD0A2F57C4290420BD002F580629042AE
:1056700007D002F58062904203D002F57842904252
:1056800003D123F070034A681343274A90422AD07B
:10569000B0F1804F27D0A2F57C42904223D002F592
:1056A000806290421FD002F5806290421BD002F5CA
:1056B0007842904217D002F57052904213D002F512
:1056C000806290420FD002F5806290420BD0A2F52A
:1056D0009832904207D002F58062904203D002F5E2
:1056E0008062904203D123F44073CA68134323F0CD
:1056F00080034A69134303608B68C3620B6883624B
:10570000094B984203D003F58063984201D10B699D
:10571000036301234361036913F0010F03D003699D
:1057200023F00103036170470000014040B310B54E
:10573000044690F83D30F3B1022384F83D30214611
:1057400051F8040BFFF786FF012384F8463084F8F4
:105750003E3084F83F3084F8403084F8413084F89B
:10576000423084F8433084F8443084F8453084F87B
:105770003D30002010BD80F83C30FBF755FEDBE7E4
:105780000120704740B310B5044690F83D30F3B1A6
:10579000022384F83D30214651F8040BFFF75AFFED
:1057A000012384F8463084F83E3084F83F3084F892
:1057B000403084F8413084F8423084F8433084F833
:1057C000443084F8453084F83D30002010BD80F826
:1057D0003C30FFF78BFEDBE70120704730B4036AF3
:1057E000026A22F0100202624468826922F4E642F0
:1057F0000D6842EA052223F020038D6843EA051371
:10580000114DA84203D005F58065A84206D123F0CA
:105810008003CD6843EA051323F040030A4DA842F4
:1058200003D005F58065A84207D124F440644D6992
:1058300044EA85048D6944EA8504446082614A68CB
:105840008263036230BC70470000014090F83C3036
:10585000012B28D010B50446012380F83C300C2AD7
:105860001CD8DFE802F0071B1B1B0C1B1B1B111BAA
:105870001B1B16000068FFF72DFD00200FE00068DD
:10588000FFF7ACFF00200AE00068FFF75BFD002097
:1058900005E00068FFF78EFD002000E001200023F6
:1058A00084F83C3010BD0220704710B4846824F4A2
:1058B0007F4C42EA03220A4342EA0C0282605DF80E
:1058C000044B704790F83C30012B78D010B504465B
:1058D000012380F83C30022380F83D300268936851
:1058E00023F47F4323F0770393600B68602B4CD045
:1058F00029D8402B54D00CD9502B22D1CA684968E2
:105900000068FFF77FFD50212068FFF7A2FD00200F
:1059100005E0202B0DD009D9302B0AD0012001231E
:1059200084F83D30002384F83C3010BD0BB1102BBF
:1059300005D119462068FFF78CFD0020EFE7012014
:10594000EDE70120EBE7B3F5805F34D0B3F5005FFE
:105950000CD1CB684A6889680068FFF7A6FF226807
:10596000936843F4804393600020D8E7702B24D1E0
:10597000CB684A6889680068FFF797FF22689368D8
:1059800043F0770393600020C9E7CA68496800685C
:10599000FFF74BFD60212068FFF75BFD0020BEE7AD
:1059A000CA6849680068FFF72DFD40212068FFF7AD
:1059B00050FD0020B3E70020B1E70120AFE702204F
:1059C0007047000090F83C20012A3DD010B40346F7
:1059D000012280F83C20022280F83D2002685068B5
:1059E000946820F0700C086840EA0C0050601A6857
:1059F000164882421AD0B2F1804F17D0A0F57C40F1
:105A0000824213D000F5806082420FD000F58060A2
:105A100082420BD000F57840824207D000F57050EA
:105A2000824203D0A0F59430824204D124F0800455
:105A3000496821439160012283F83D20002083F8CA
:105A40003C005DF8044B70470220704700000140A5
:105A500070477047026802F10C0353E8003F23F4DB
:105A600090730C3242E800310029F3D1026802F150
:105A7000140353E8003F23F00103143242E80031DD
:105A80000029F3D1036B012B05D0202380F842308D
:105A9000002303637047026802F10C0353E8003FE0
:105AA00023F010030C3242E800310029F3D1ECE777
:105AB00010B504460268136923F44053C1680B43D0
:105AC0001361836802691A4343691A43C3691A431D
:105AD0000168CB6823F4164323F00C031343CB6017
